{
  "contractName": "SendABox",
  "abi": [
    {
      "constant": true,
      "inputs": [],
      "name": "SZABO_PER_WEI",
      "outputs": [
        {
          "name": "",
          "type": "uint256"
        }
      ],
      "payable": false,
      "stateMutability": "view",
      "type": "function"
    },
    {
      "constant": true,
      "inputs": [],
      "name": "owner",
      "outputs": [
        {
          "name": "",
          "type": "address"
        }
      ],
      "payable": false,
      "stateMutability": "view",
      "type": "function"
    },
    {
      "inputs": [],
      "payable": false,
      "stateMutability": "nonpayable",
      "type": "constructor"
    },
    {
      "anonymous": false,
      "inputs": [
        {
          "indexed": true,
          "name": "_box_idx",
          "type": "uint256"
        },
        {
          "indexed": true,
          "name": "_sender",
          "type": "address"
        },
        {
          "indexed": false,
          "name": "_value",
          "type": "uint256"
        },
        {
          "indexed": false,
          "name": "_token",
          "type": "uint256"
        },
        {
          "indexed": false,
          "name": "_message",
          "type": "string"
        }
      ],
      "name": "ev_SendABoxEvent",
      "type": "event"
    },
    {
      "constant": false,
      "inputs": [
        {
          "name": "message",
          "type": "string"
        }
      ],
      "name": "Contract_SendABox",
      "outputs": [],
      "payable": true,
      "stateMutability": "payable",
      "type": "function"
    },
    {
      "constant": true,
      "inputs": [
        {
          "name": "_owner",
          "type": "address"
        }
      ],
      "name": "balanceOf",
      "outputs": [
        {
          "name": "",
          "type": "uint256"
        }
      ],
      "payable": false,
      "stateMutability": "view",
      "type": "function"
    },
    {
      "constant": true,
      "inputs": [],
      "name": "nowBoxid",
      "outputs": [
        {
          "name": "",
          "type": "uint256"
        }
      ],
      "payable": false,
      "stateMutability": "view",
      "type": "function"
    }
  ],
  "bytecode": "0x6080604052600060035534801561001557600080fd5b506000600381905550336000806101000a81548173ffffffffffffffffffffffffffffffffffffffff021916908373ffffffffffffffffffffffffffffffffffffffff16021790555061045d8061006d6000396000f30060806040526004361061006d576000357c0100000000000000000000000000000000000000000000000000000000900463ffffffff1680630478ef4b14610072578063667229aa1461009d57806370a08231146100c85780638da5cb5b1461011f578063ba757abb14610176575b600080fd5b34801561007e57600080fd5b506100876101d2565b6040518082815260200191505060405180910390f35b3480156100a957600080fd5b506100b26101dd565b6040518082815260200191505060405180910390f35b3480156100d457600080fd5b50610109600480360381019080803573ffffffffffffffffffffffffffffffffffffffff1690602001909291905050506101e7565b6040518082815260200191505060405180910390f35b34801561012b57600080fd5b50610134610230565b604051808273ffffffffffffffffffffffffffffffffffffffff1673ffffffffffffffffffffffffffffffffffffffff16815260200191505060405180910390f35b6101d0600480360381019080803590602001908201803590602001908080601f0160208091040260200160405190810160405280939291908181526020018383808284378201915050505050509192919290505050610255565b005b662386f26fc1000081565b6000600354905090565b6000600460008373ffffffffffffffffffffffffffffffffffffffff1673ffffffffffffffffffffffffffffffffffffffff168152602001908152602001600020549050919050565b6000809054906101000a900473ffffffffffffffffffffffffffffffffffffffff1681565b600080600560009054906101000a900460ff1615151561027457600080fd5b34915060016003540160038190555061029d662386f26fc10000836103ff90919063ffffffff16565b90506102f181600460003373ffffffffffffffffffffffffffffffffffffffff1673ffffffffffffffffffffffffffffffffffffffff1681526020019081526020016000205461041590919063ffffffff16565b600460003373ffffffffffffffffffffffffffffffffffffffff1673ffffffffffffffffffffffffffffffffffffffff168152602001908152602001600020819055503373ffffffffffffffffffffffffffffffffffffffff166003547f88fbfc87ab013b98e2bd419a0d8974220e533276ec5e3bb63b7bff2bca27694a8484876040518084815260200183815260200180602001828103825283818151815260200191508051906020019080838360005b838110156103be5780820151818401526020810190506103a3565b50505050905090810190601f1680156103eb5780820380516001836020036101000a031916815260200191505b5094505050505060405180910390a3505050565b6000818381151561040c57fe5b04905092915050565b6000818301905082811015151561042857fe5b809050929150505600a165627a7a7230582064612003f8a04ce457992de7cc80a0397529b836873f7ee94ddb2a3f11d0ef960029",
  "source": "\r\n\r\npragma solidity ^0.4.21;\r\n//pragma experimental ABIEncoderV2;\r\n\r\nimport 'zeppelin-solidity/contracts/math/SafeMath.sol';\r\n\r\ncontract SendABox {\r\n    using SafeMath for uint256;\r\n    address public owner;\r\n    address developer;\r\n    address government;\r\n    uint public constant SZABO_PER_WEI = 10000000000000000; //  0^16 개ㅑ 0.01 ether = 1 token \r\n\r\n    uint256 box_idx = 0;\r\n      \r\n    mapping(address => uint256) balances;\r\n\r\n    bool private closed;\r\n  \r\n    event ev_SendABoxEvent(uint256 indexed _box_idx , address indexed _sender , uint256 _value , uint256 _token , string _message);\r\n\r\n    constructor() public {\r\n        box_idx = 0;\r\n        //require(_token.owner != msg.sender);\r\n        owner = msg.sender;\r\n\r\n     }\r\n\r\n    modifier onlyOwner() {\r\n        require(owner == msg.sender);\r\n        _;\r\n    }\r\n  \r\n    function Contract_SendABox(string message) public payable {\r\n        \r\n        require(!closed);\r\n   \r\n        uint256 amount = msg.value; //주석처리 했을때 79066 -> 79052  , 58929 -> 58943\r\n        \r\n        box_idx = box_idx + 1;\r\n \r\n        uint256 tokencnt = amount.div(SZABO_PER_WEI);\r\n\r\n        balances[msg.sender] = balances[msg.sender].add(tokencnt);\r\n\r\n        emit ev_SendABoxEvent(box_idx , msg.sender , amount, tokencnt , message);\r\n    }\r\n\r\n     function balanceOf(address _owner) public view returns (uint256) {\r\n        return balances[_owner];\r\n    }\r\n\r\n    function nowBoxid() public view returns (uint256) {\r\n        return box_idx;\r\n    }\r\n\r\n}",
  "sourcePath": "D:\\solidity_project\\REALPROJECT\\ETHBOX\\contracts\\SendABox.sol",
  "compiler": {
    "name": "solc",
    "version": "0.4.24+commit.e67f0147.Emscripten.clang"
  },
  "schemaVersion": "2.0.0",
  "updatedAt": "2018-11-04T13:40:31.016Z"
}